:020000040000FA
:100000000C9462000C948A000C948A000C948A0070
:100010000C948A000C948A000C948A000C948A0038
:100020000C948A000C948A000C948A000C948A0028
:100030000C948A000C948A000C948A000C948A0018
:100040000C94F6020C948A000C948A000C948A009A
:100050000C948A000C948A000C948A000C948A00F8
:100060000C948A000C948A000000000024002700F1
:100070002A0000000000250028002B0000000000DE
:1000800023002600290004040404040404040202DA
:100090000202020203030303030301020408102007
:1000A0004080010204081020010204081020000012
:1000B0000008000201000003040700000000000027
:1000C0000000DC0411241FBECFEFD8E0DEBFCDBF9F
:1000D00011E0A0E0B1E0E6E0FAE002C005900D9288
:1000E000A439B107D9F721E0A4E9B1E001C01D921C
:1000F000AB3BB207E1F710E0C2E6D0E004C02197C5
:10010000FE010E94FB04C136D107C9F70E944003DB
:100110000C9401050C940000AF92BF92CF92DF9235
:10012000EF92FF920F931F93CF93DF936C017B01AC
:100130008B01040F151FEB015E01AE18BF08C0173D
:10014000D10759F06991D601ED91FC910190F081B0
:10015000E02DC6010995892B79F7C501DF91CF9173
:100160001F910F91FF90EF90DF90CF90BF90AF90D5
:100170000895833081F028F4813099F08230A9F01D
:1001800008958730A9F08830C9F08430B1F48091A7
:1001900080008F7D03C0809180008F7780938000E6
:1001A000089584B58F7784BD089584B58F7DFBCF86
:1001B0008091B0008F778093B00008958091B00057
:1001C0008F7DF9CFCF93DF93282F30E0F901E255EF
:1001D000FF4F8491F901E656FF4FD491F901EA5798
:1001E000FF4FC491CC23A1F081110E94B900EC2FE4
:1001F000F0E0EE0FFF1FE458FF4FA591B491EC9192
:10020000ED2381E090E009F480E0DF91CF91089543
:1002100080E090E0FACF1F93CF93DF93282F30E058
:10022000F901E255FF4F8491F901E656FF4FD49151
:10023000F901EA57FF4FC491CC23A9F0162F811181
:100240000E94B900EC2FF0E0EE0FFF1FEE58FF4FB9
:10025000A591B4918FB7F894EC91111108C0D09585
:10026000DE23DC938FBFDF91CF911F910895DE2BAA
:10027000F8CFCF93DF9390E0FC01E656FF4F249137
:100280008A579F4FFC0184918823D1F090E0880F1A
:10029000991FFC01E859FF4FA591B491FC01EE585C
:1002A000FF4FC591D491623071F49FB7F8943C919F
:1002B000822F809583238C93E8812E2B28839FBFE8
:1002C000DF91CF9108958FB7F894EC912E2B2C935A
:1002D0008FBFF6CF3FB7F8948091990190919A0122
:1002E000A0919B01B0919C0126B5A89B05C02F3F12
:1002F00019F00196A11DB11D3FBFBA2FA92F982F4C
:100300008827BC01CD01620F711D811D911D42E046
:10031000660F771F881F991F4A95D1F70895089592
:1003200090E080E00895FC0101900020E9F731970A
:10033000AF01481B590BBC0183EA91E00C948C007F
:10034000CF93DF93EC0160E08E810E940B0161E0AE
:100350008E810E940B0160E08E810E940B018BE870
:1003600091E00197F1F7DF91CF910895CF92DF925D
:10037000EF92FF920F931F93CF93DF936C017C0159
:1003800087E0E80EF11CD0E0C0E0062F10E0B801D5
:100390000C2E02C0759567950A94E2F76170F7011B
:1003A00081917F010E940B012196C430D10579F71C
:1003B000C601DF91CF911F910F91FF90EF90DF90D9
:1003C000CF900C94A001CF92DF92EF92FF920F9307
:1003D0001F93CF93DF93EC01F62E642F8C810E9444
:1003E0000B018D818F3F19F060E00E940B010F2DF2
:1003F00010E08F8584FF25C06E0187E0C80ED11CF8
:10040000F12CE12CB8010E2C02C0759567950A9469
:10041000E2F76170F60181916F010E940B01FFEF1D
:10042000EF1AFF0A88E0E816F10461F7CE01DF91C8
:10043000CF911F910F91FF90EF90DF90CF900C9490
:10044000A001B80184E0759567958A95E1F7CE0122
:100450000E94B6016F2DCE01DF91CF911F910F91B8
:10046000FF90EF90DF90CF900C94B60140E0682FA2
:1004700083EA91E00C94E301CF93DF93613029F09C
:100480009091B20198609093B2016093B60110927E
:10049000B70190E49093B8018093B901805C809398
:1004A000BA0161E08091A7010E9439018091A80101
:1004B0008F3F19F061E00E94390161E08091A9014C
:1004C0000E943901C3EAD1E09E01235A3140809154
:1004D000B20184FD0BC084E090E021962817390713
:1004E00044F461E08E810E943901EECF88E090E013
:1004F000F4CF8BE39DE00197F1F760E08091A701D5
:100500000E940B0160E08091A9010E940B01809183
:10051000A8018F3F19F060E00E940B018091B201A9
:1005200084FD39C063E083EA91E00E94B601CBE428
:10053000D6E4CE010197F1F763E083EA91E00E94EF
:10054000B6012197F1F763E083EA91E00E94B601DA
:1005500083E592E00197F1F762E083EA91E00E947F
:10056000B6018091B20180620E94360284E08093DD
:10057000B3018CE00E94360281E00E9436028BE3D8
:100580009FE10197F1F782E08093B40186E0DF916B
:10059000CF910C94360280620E9436028BE496E47E
:1005A0000197F1F78091B20180620E94360283E5E3
:1005B00092E00197F1F78091B20180620E943602C9
:1005C000D0CF9091B601691710F06FEF690FE62F49
:1005D000F0E0ED55FE4F9489890F80680C94360247
:1005E00041E00E94E30181E090E008951F920F92A4
:1005F0000FB60F9211242F933F938F939F93AF9336
:10060000BF938091950190919601A0919701B0912F
:1006100098013091940123E0230F2D3758F501966E
:10062000A11DB11D20939401809395019093960193
:10063000A0939701B09398018091990190919A01AC
:10064000A0919B01B0919C010196A11DB11D8093C9
:10065000990190939A01A0939B01B0939C01BF9143
:10066000AF919F918F913F912F910F900FBE0F905F
:100670001F90189526E8230F0296A11DB11DD2CF19
:10068000789484B5826084BD84B5816084BD85B56D
:10069000826085BD85B5816085BD80916E00816079
:1006A00080936E001092810080918100826080931F
:1006B0008100809181008160809381008091800021
:1006C0008160809380008091B10084608093B1004C
:1006D0008091B00081608093B00080917A00846046
:1006E00080937A0080917A00826080937A00809172
:1006F0007A00816080937A0080917A00806880938C
:100700007A001092C10062E08EE00E94390162E03E
:100710008FE00E94390162E080E10E94390162E0CD
:1007200081E10E94390162E082E10E94390162E0C8
:1007300087E00E94390161E083E10E94390164E0B1
:1007400084E10E943C0260E082E00E94E1028CE0D1
:1007500091E00E94930161E088E00E94E1028EE155
:1007600091E00E94930162E083E00E94E10283E253
:1007700091E00E94930163E084E00E94E10284E33F
:1007800091E00E9493010E946A014B015C018CEB95
:10079000C82E82E0D82EE12CF12C0E946A01681943
:1007A00079098A099B09683E734081059105A8F380
:1007B00021E0C21AD108E108F10888EE880E83E032
:1007C000981EA11CB11CC114D104E104F10429F745
:1007D00081E00E9436028BE39FE10197F1F761E02F
:1007E00080E00E94E10282E491E00E94930162E0D5
:1007F00080E00E94E10289E491E00E94930161E0BF
:100800008AE00E94E1028FE491E00E94930162E09D
:100810008AE00E94E10287E591E00E94930163E093
:1008200085E00E94E10280E691E00E949301C0E031
:10083000D0E08EE00E94E2007C0181E0E114F1044E
:1008400009F480E08093A2018FE00E94E20021E0A1
:10085000892B09F420E02093A10180E10E94E200AD
:1008600021E0892B09F420E02093A00181E10E947E
:10087000E20021E0892B09F420E020939F0182E12E
:100880000E94E20021E0892B09F420E020939E01E0
:1008900087E00E94E20021E0892B09F420E0209308
:1008A0009D0161E086E0EF2809F449C00E94E10261
:1008B00089E691E00E9493018091A10162E0882382
:1008C00009F442C085E00E94E10289E691E00E94BD
:1008D000930180919E0161E08823E1F181E10E9412
:1008E000E10289E691E00E94930180919F0162E01C
:1008F0008823B1F182E10E94E10289E691E00E9441
:1009000093018091A00163E0882381F18DE00E9432
:10091000E10289E691E00E94930180919D0160E0EF
:1009200081112AC083E00E94E10283E791E00E94E6
:100930009301209709F47DCF0E9400007ACF0E9496
:10094000E1028CE691E0B6CF85E00E94E1028FE6FD
:1009500091E0BDCF81E10E94E1028FE691E0C3CF3B
:1009600082E10E94E1028FE691E0C9CF8DE00E9412
:10097000E1028FE691E0CFCF83E00E94E10284E8BC
:1009800091E00E9493018091A201811110C0809199
:10099000A10181110CC08091A001811108C080913A
:1009A0009F01811104C080919E0160E0811161E08E
:1009B00083E10E940B01BDCFE3EAF1E013821282D2
:1009C00084E091E0918380838CE084838FEF858342
:1009D0008BE0868385E0878384E0808783E081875E
:1009E00082E082871386148615861686178661E054
:1009F00080E10C943C02EE0FFF1F0590F491E02D76
:100A00000994F894FFCF00000000F0028C009001E0
:100A10008F0153697374656D6120646520416C6159
:100A2000726D61002055534F004172717569746594
:100A300063747572612064652000436F6D70757416
:100A400061646F7261732E00467565676F3A004886
:100A5000756D6F3A005075657274613A0056656E37
:100A600074616E613A00496E747275736F3A005327
:100A700069004E6F004E6F200020204D6F646F2084
:100A80004E6F726D616C202020004D6F646F20539B
:0A0A90006567757269646164000017
:107E0000112484B714BE81FFF0D085E080938100F7
:107E100082E08093C00088E18093C10086E0809377
:107E2000C20080E18093C4008EE0C9D0259A86E02C
:107E300020E33CEF91E0309385002093840096BBD3
:107E4000B09BFECF1D9AA8958150A9F7CC24DD24C4
:107E500088248394B5E0AB2EA1E19A2EF3E0BF2EE7
:107E6000A2D0813461F49FD0082FAFD0023811F036
:107E7000013811F484E001C083E08DD089C08234E0
:107E800011F484E103C0853419F485E0A6D080C0E4
:107E9000853579F488D0E82EFF2485D0082F10E0AE
:107EA000102F00270E291F29000F111F8ED06801E7
:107EB0006FC0863521F484E090D080E0DECF843638
:107EC00009F040C070D06FD0082F6DD080E0C81688
:107ED00080E7D80618F4F601B7BEE895C0E0D1E017
:107EE00062D089930C17E1F7F0E0CF16F0E7DF06D8
:107EF00018F0F601B7BEE89568D007B600FCFDCFD4
:107F0000A601A0E0B1E02C9130E011968C91119780
:107F100090E0982F8827822B932B1296FA010C0160
:107F200087BEE89511244E5F5F4FF1E0A038BF0790
:107F300051F7F601A7BEE89507B600FCFDCF97BE46
:107F4000E89526C08437B1F42ED02DD0F82E2BD052
:107F50003CD0F601EF2C8F010F5F1F4F84911BD097
:107F6000EA94F801C1F70894C11CD11CFA94CF0C13
:107F7000D11C0EC0853739F428D08EE10CD085E9AC
:107F80000AD08FE07ACF813511F488E018D01DD067
:107F900080E101D065CF982F8091C00085FFFCCF94
:107FA0009093C60008958091C00087FFFCCF809118
:107FB000C00084FD01C0A8958091C6000895E0E648
:107FC000F0E098E1908380830895EDDF803219F02E
:107FD00088E0F5DFFFCF84E1DECF1F93182FE3DFCA
:107FE0001150E9F7F2DF1F91089580E0E8DFEE27F6
:047FF000FF270994CA
:027FFE00040479
:00000001FF
